:020000020000FC
:040000000C94480014
:04001C000C94180028
:10002C000C941F000F930FB70F930F910FBF0F91ED
:10003C0018950F930FB70F933A95332339F42395F3
:10004C00273019F420E0F0E0E0E635910F910FBF76
:10005C000F9118951A0438040B04140001010102C5
:10006C000404040001020404040404000404010256
:10007C000404040004040404010204000404040441
:10008C00040401000FEF0DBF08E00EBF20E0F0E00C
:10009C00E0E6359100E0009389000FE300938800BF
:1000AC0000E0009380000CE00093810000916F0051
:1000BC00026000936F000AEF0093B30002E000931C
:1000CC00B00006E00093B100009170000260009354
:0600DC0070007894FFCFD4
:00000001FF
