:020000020000FC
:040000000C94CF008D
:04001C000C94180028
:10002C000C94A3000F930FB70F9300E008B90BB912
:10003C00403051F400E0F1E0E6E7E20FF01F54919C
:10004C0008B1016008B930C0413051F400E0F1E072
:10005C00EEE7E20FF01F549108B1006108B924C01B
:10006C00423051F400E0F1E0E6E8E20FF01F549169
:10007C0008B1046008B918C0433069F400E0F1E03D
:10008C00EEE8E20FF01F549108B1086008B908B10E
:10009C00086008B909C000E0F1E0E6E9E20FF01FE2
:1000AC00549108B1026008B94395453009F440E019
:1000BC00052F0470002321F40BB10D7F0BB903C085
:1000CC000BB102600BB9052F0270002321F40BB1A8
:1000DC000E7F0BB903C00BB101600BB9052F01707A
:1000EC00002321F408B10F7D08B903C008B10062E8
:1000FC0008B9042F0170002349F40BB108600BB947
:10010C00032F0A3010F00A50FCCF0AC00BB1046068
:10011C000BB9132F00E01A3018F01A500395FBCFCF
:10012C0014E0103019F01A95000FFBCF1BB1102BF7
:10013C001BB90F910FBF0F9118950F930FB70F931A
:10014C003A95332351F42395273009F420E000E04D
:10015C00F1E0EEE6E20FF01F34910F910FBF0F911B
:10016C0018951A0438040B0414000101010204044C
:10017C000400010204040404040004040102040445
:10018C000400040404040102040004040404040430
:10019C0001000FEF0DBF08E00EBF0FE107B90FEF25
:1001AC000AB900E020E0F1E0EEE6E20FF01F349136
:1001BC0040E004EF0093890004E20093880000E023
:1001CC00009380000CE00093810000916F000260AE
:1001DC0000936F000DE70093B30002E00093B000B2
:1001EC0006E00093B1000091700002600093700073
:0401FC007894FFCF25
:00000001FF
