:020000020000FC
:040000000C94C90093
:04001C000C94180028
:10002C000C949D000F930FB70F9300E008B90BB918
:10003C00403051F400E0F1E0EAE6E20FF01F549199
:10004C0008B1006108B92AC0413051F400E0F1E078
:10005C00E2E7E20FF01F549108B1086008B91EC026
:10006C00423039F400E0F1E0EAE7E20FF01F54917E
:10007C0015C0433051F400E0F1E0EAE7E20FF01F65
:10008C00549108B1046008B909C000E0F1E0EAE855
:10009C00E20FF01F549108B1016008B94395453047
:1000AC0009F440E0052F0470002321F40BB100701B
:1000BC000BB903C00BB101600BB9052F0270002303
:1000CC0021F40BB100700BB903C00BB102600BB97A
:1000DC00052F0170002321F40BB100700BB903C084
:1000EC000BB104600BB90BB10870002349F40BB1D0
:1000FC0008600BB9032F0A3010F00A50FCCF07C070
:10010C00132F00E01A3018F01A500395FBCF14E0AF
:10011C00103019F01A95000FFBCF1BB1102B1BB927
:10012C0008B1006108B90F910FBF0F9118950F938B
:10013C000FB70F933A95332351F42395273009F4D5
:10014C0020E000E0F1E0E2E6E20FF01F34910F91C5
:10015C000FBF0F9118951A0438040B0414000101F9
:10016C000102040404000102040404040400040455
:10017C000102040404000404040401020400040445
:10018C000404040401000FEF0DBF08E00EBF0FE1E3
:10019C0007B90FEF0AB900E020E0F1E0E2E6E20F68
:1001AC00F01F349140E000E0009389000FE30093CE
:1001BC00880000E0009380000CE000938100009127
:1001CC006F00026000936F000AEF0093B30002E02F
:1001DC000093B00006E00093B10000917000026043
:0801EC00009370007894FFCF2E
:00000001FF
