:020000020000FC
:040000000C947B00E1
:04001C000C94180028
:10002C000C944F000F930FB70F93403049F400E03E
:10003C00F0E0EEECE20FF01F549108B90BB921C0BF
:10004C00413039F400E0F0E0E6EDE20FF01F54919E
:10005C0018C0423039F400E0F0E0EEEDE20FF01F92
:10006C0054910FC0433039F400E0F0E0EEEDE20FB4
:10007C00F01F549106C000E0F0E0EEEEE20FF01F2E
:10008C0054914395453009F440E00F910FBF0F9107
:10009C0018950F930FB70F933A95332351F423957B
:1000AC00273009F420E000E0F0E0E6ECE20FF01F6E
:1000BC0034910F910FBF0F9118951A0438040B044B
:1000CC0014000101010204040400010204040404EC
:1000DC0004000404010204040400040404040102E6
:1000EC00040004040404040401000FEF0DBF08E035
:1000FC000EBF0FE107B90FEF0AB900E020E0F0E006
:10010C00E6ECE20FF01F349140E000E00093890030
:10011C000FE30093880000E0009380000CE0009354
:10012C00810000916F00026000936F000AEF009352
:10013C00B30002E00093B00006E00093B100009120
:0C014C0070000260009370007894FFCFF8
:00000001FF
